:1000000009C017C015C014C013C012C07CC010C0F6
:100010000FC00EC011241FBECFE9CDBF20E0A0E667
:10002000B0E001C01D92A536B207E1F7E6D019C1D4
:10003000E7CF1F920F920FB60F9211248F938091EA
:100040006000813031F480E48BBF81E085BF109285
:10005000600080916400823059F128F4882341F0D7
:10006000813091F04AC0843089F18530D9F145C0A2
:10007000B19943C012BE89B7846089BF10926300F2
:1000800081E08093640039C080916300843060F027
:1000900012BE84E088BF1092630088B38B7F88BB58
:1000A00082E08093640029C085E08093640025C0CD
:1000B00080916300813019F41092620003C081E0E6
:1000C0008093620084E08093640017C0B19904C0FB
:1000D00088B38B7F88BB03C088B3846088BB1092D1
:1000E00063000BC089B78B7F89BF88B3846088BBEE
:1000F0001092640081E0809360008F910F900FBE9A
:100100000F901F9018951F920F920FB60F92112407
:100110008F93809163008F5F809363008091630071
:10012000803180F0109264001092630012BE84E06F
:1001300088BF89B78B7F89BF88B3846088BB81E023
:10014000809360008F910F900FBE0F901F901895B5
:1001500087B38D7F87BB88B3826088BB87B3846099
:1001600087BB87B3896187BB089520E030E008C072
:10017000EFE5F9E03197F1F700C000002F5F3F4F46
:1001800028173907A8F3089515BE80E48BBF80E3D4
:1001900085BF089582E08FBD84E083BF80E286BF83
:1001A00008950F931F93CF93DF93D62F8A0198B3AF
:1001B000916098BB863419F498B3906198BB8234EF
:1001C00019F488B38F7E88BBC0E00DC088B3886007
:1001D00088BB80EF90E00197F1F788B3877F88BBF9
:1001E000C801C3DFCF5FCD1788F388B38E7F88BB8C
:1001F000DF91CF911F910F910895AADF88B3877E79
:1002000088BB03C080E28A95F1F7B19BFBCFC2DFC8
:10021000BBDF789481E0809360008091640081115D
:10022000FCCF9091620080916100981799F08091C5
:100230006200811106C048E050E06DE086E4B1DF65
:1002400005C048E050E06DE082E4ABDF80916200E1
:1002500080936100809160008130F9F695DF889588
:06026000DCCFF894FFCF93
:00000001FF
